:100000000C9462000C9445040C941E040C948A0019
:100010000C948A000C948A000C948A000C948A0038
:100020000C948A000C948A000C948A000C948A0028
:100030000C948A000C948A000C948A000C948A0018
:100040000C94D4030C948A000C948A000C948A00BB
:100050000C948A000C948A000C948A000C948A00F8
:100060000C948A000C948A000000000024002700F1
:100070002A0000000000250028002B0000000000DE
:1000800023002600290004040404040404040202DA
:100090000202020203030303030301020408102007
:1000A0004080010204081020010204081020000012
:1000B0000008000201000003040700000000000027
:1000C0000000590711241FBECFEFD8E0DEBFCDBF1F
:1000D00011E0A0E0B1E0E0E2F5E102C005900D9290
:1000E000AA36B107D9F721E0AAE6B1E001C01D9216
:1000F000A33BB207E1F710E0C2E6D0E004C02197CD
:10010000FE010E94830AC136D107C9F70E946C0420
:100110000C948E0A0C940000E0919B01F0919C01DC
:100120000190F081E02D682F8BE991E00994CF9246
:10013000DF92EF92FF920F931F93CF93DF936C01A7
:100140007A018B01C0E0D0E0CE15DF0589F0D8013F
:100150006D918D01D601ED91FC910190F081E02D22
:10016000C6010995892B11F47E0102C02196ECCFBE
:10017000C701DF91CF911F910F91FF90EF90DF901A
:10018000CF900895833081F028F4813099F0823047
:10019000A1F008958730A9F08830B9F08430D1F407
:1001A000809180008F7D03C0809180008F77809345
:1001B0008000089584B58F7702C084B58F7D84BD9B
:1001C00008958091B0008F7703C08091B0008F7D3B
:1001D0008093B0000895CF93DF93282F30E0F9018A
:1001E000E255FF4F8491F901E656FF4FD491F90192
:1001F000EA57FF4FC491CC2391F081110E94C200B5
:10020000EC2FF0E0EE0FFF1FE458FF4FA591B491E3
:10021000EC91ED2381E090E021F480E002C080E0E9
:1002200090E0DF91CF9108951F93CF93DF93282F14
:1002300030E0F901E255FF4F8491F901E656FF4F96
:10024000D491F901EA57FF4FC491CC23C9F0162F7E
:1002500081110E94C200EC2FF0E0EE0FFF1FEE585C
:10026000FF4FA591B4918FB7F894111105C09C91DF
:10027000ED2FE095E92302C0EC91ED2BEC938FBFBD
:10028000DF91CF911F910895CF93DF9390E0FC0110
:10029000E656FF4F2491FC01EA57FF4F84918823D3
:1002A00061F190E0880F991FFC01E859FF4FC5915B
:1002B000D491FC01EE58FF4FA591B491611109C092
:1002C0009FB7F8948881209582238883EC912E2310
:1002D0000BC0623061F49FB7F8943881822F80950B
:1002E00083238883EC912E2B2C939FBF06C08FB75E
:1002F000F894E8812E2B28838FBFDF91CF9108954A
:100300003FB7F8948091730190917401A0917501A9
:10031000B091760126B5A89B05C02F3F19F0019634
:10032000A11DB11D3FBFBA2FA92F982F8827820F7B
:10033000911DA11DB11DBC01CD0142E0660F771FCB
:10034000881F991F4A95D1F708950895CF93DF9399
:10035000EC0160E08E810E94140161E08E810E94B8
:10036000140160E08E810E9414018BE891E00197F6
:10037000F1F7DF91CF910895CF92DF92EF92FF9244
:100380000F931F93CF93DF937C016C0187E0C80E1E
:10039000D11CC0E0D0E0062F10E0B8010C2E02C046
:1003A000759567950A94E2F76170F60181916F0186
:1003B0000E9414012196C430D10579F7C701DF915D
:1003C000CF911F910F91FF90EF90DF90CF900C9401
:1003D000A601CF92DF92EF92FF920F931F93CF93DC
:1003E000DF93EC01F62E642F8C810E9414018D8125
:1003F0008F3F19F060E00E9414018F850F2D10E0EF
:1004000084FF25C06E0187E0C80ED11CE12CF12CC1
:10041000B8010E2C02C0759567950A94E2F76170D9
:10042000F60181916F010E941401FFEFEF1AFF0A9C
:1004300088E0E816F10461F7CE01DF91CF911F91BA
:100440000F91FF90EF90DF90CF900C94A601B80130
:1004500084E0759567958A95E1F7CE010E94BC010D
:100460006F2DCE01DF91CF911F910F91FF90EF90F3
:10047000DF90CF900C94BC0141E00E94E90181E043
:1004800090E0089540E00C94E901EF92FF920F9301
:100490001F93CF93DF93EC01623018F08F85886053
:1004A0008F876B8B1C8A80E48D8B80E18E8B80E53F
:1004B0008F8B61E08C810E9444018D818F3F19F008
:1004C00061E00E94440161E08E810E9444017E014E
:1004D00087E0E80EF11C00E010E08F8584FD03C08A
:1004E00084E090E002C088E090E0081719074CF41F
:1004F00061E0F70181917F010E9444010F5F1F4F6E
:10050000ECCF8BE39DE00197F1F760E08C810E94D6
:10051000140160E08E810E9414018D818F3F19F0DB
:1005200060E00E9414016F8564FD1DC063E0CE0190
:100530000E94BC010BE416E4C8010197F1F763E0E7
:10054000CE010E94BC01C8010197F1F763E0CE0122
:100550000E94BC0183E592E00197F1F762E0CE01D1
:100560000E94BC0116C06062CE010E9442028BE470
:1005700096E40197F1F76F856062CE010E94420216
:1005800083E592E00197F1F76F856062CE010E94EA
:1005900042026F856062CE010E94420284E0888B35
:1005A0006CE0CE010E94420261E0CE010E94420254
:1005B0008BE39FE10197F1F782E0898B66E0CE0142
:1005C000DF91CF911F910F91FF90EF900C94420219
:1005D000643008F063E09091AE01691710F06FEF9E
:1005E000690FE62FF0E0E556FE4F9489682F690FFA
:1005F00060688BE991E00C944202089580E090E0FD
:100600000895DC01ED91FD918081ED91FD91908146
:10061000ED91FD916C9163708E2309F064609F23CE
:1006200009F06860EEE1F3E0E60FF11D6595659570
:100630006D936D917D918D919D91099423C01AC008
:1006400012C016C010C01EC009C014C013C006C01E
:1006500019C009C00DC007C00DC014C06250704061
:10066000804090400BC0615070408040904006C078
:100670006E5F01C06F5F7F4F8F4F9F4F9E938E9332
:100680007E936E93089580916C0190916D010C940E
:10069000010380916A0190916B010C940103009712
:1006A00069F0FC0101900020E9F73197AF01481B88
:1006B000590BBC018BE991E00C94970080E090E02D
:1006C00008958F929F92AF92BF920F931F93CF93F3
:1006D000DF93CDB7DEB7A1970FB6F894DEBF0FBE9C
:1006E000CDBF19A2423008F44AE08E010F5D1F4FC2
:1006F000842E912CA12CB12CA50194010E940808F4
:10070000E62FB901CA0101501109EA3014F4E05D85
:1007100001C0E95CD801EC93232B242B252B61F736
:10072000C8010E944F03A1960FB6F894DEBF0FBE1A
:10073000CDBFDF91CF911F910F91BF90AF909F9050
:100740008F9008950C944F03CF92DF92EF92FF9217
:10075000CF93DF936C01990FEE08FF08F7FE17C0E7
:100760008DE20E948C00EC0166277727CB016C1983
:100770007D098E099F094AE00E9461038C0F9D1F2D
:10078000DF91CF91FF90EF90DF90CF9008954AE0F6
:10079000C701B601DF91CF91FF90EF90DF90CF902E
:1007A0000C9461030E94890A1F920F920FB60F9258
:1007B00011242F933F938F939F93AF93BF93809177
:1007C0006F0190917001A0917101B091720130910F
:1007D0006E0123E0230F2D3720F40196A11DB11DDA
:1007E00005C026E8230F0296A11DB11D20936E01BE
:1007F00080936F0190937001A0937101B093720187
:100800008091730190917401A0917501B09176016E
:100810000196A11DB11D8093730190937401A09363
:100820007501B0937601BF91AF919F918F913F91E8
:100830002F910F900FBE0F901F9018951F920F923F
:100840000FB60F9211242F933F934F935F936F93A3
:100850007F938F939F93AF93BF93EF93FF93E09119
:100860000201F09103010995FF91EF91BF91AF91C2
:100870009F918F917F916F915F914F913F912F91B8
:100880000F900FBE0F901F9018951F920F920FB6EA
:100890000F9211242F933F934F935F936F937F9306
:1008A0008F939F93AF93BF93EF93FF93E0910001DA
:1008B000F09101010995FF91EF91BF91AF919F9147
:1008C0008F917F916F915F914F913F912F910F90F9
:1008D0000FBE0F901F901895789484B5826084BDE8
:1008E00084B5816084BD85B5826085BD85B5816034
:1008F00085BD80916E00816080936E0010928100B2
:10090000809181008260809381008091810081606C
:10091000809381008091800081608093800080912D
:10092000B10084608093B1008091B00081608093B9
:10093000B00080917A00846080937A0080917A0080
:10094000826080937A0080917A00816080937A003F
:1009500080917A00806880937A001092C10062E0F2
:100960008BE991E00E94450286E191E00E94A2039A
:1009700061E08BE991E00E9442028BE39FE10197E5
:10098000F1F760E080E00E94E80282E291E00E94DC
:10099000A20361E080E00E94E8028CE291E00E9404
:1009A000A20361E089E00E94440161E088E00E94C6
:1009B000440161E08AE00E94440161E088E00E9415
:1009C000140161E08AE00E94140160E08FE00E945F
:1009D000440161E08FE00E94140160E083E00E9426
:1009E000440161E083E00E94140160E08BE00E941A
:1009F000440161E08BE00E9414018FE00E94EB0053
:100A000090939A01809399018BE00E94EB00909360
:100A100098018093970183E00E94EB00EC01909392
:100A200096018093950160E08BE00E94E802CD2B57
:100A300039F061E08AE00E94140182E391E006C08F
:100A400060E08AE00E94140188E391E00E94A20322
:100A500061E085E00E94E8028091990190919A01FD
:100A6000892B39F061E088E00E9414018EE391E067
:100A700006C060E088E00E94140184E491E00E94D6
:100A8000A20381E090E09093880180938701909386
:100A900005018093040188EE93E090937E0180939A
:100AA0007D018BEB97E2AFE0BEE3809379019093F9
:100AB0007A01A0937B01B0937C0160E084E00E9406
:100AC000E8028AE491E00E94A20360E084E00E94D0
:100AD000E802C0907901D0907A01E0907B01F0901B
:100AE0007C01A7019601C701B6010E94770A8823FD
:100AF00019F081E591E01AC046015701E894B7F872
:100B00002FEF3FEF4FE75FE7C501B4010E94770A7F
:100B100081110FC02FEF3FEF4FE75FE7C501B40131
:100B20000E94A60818162CF485E591E00E944F0358
:100B300072C02FEF3FEF4FE75FE4C701B6010E949D
:100B4000050A18161CF489E591E0F0CF2FEF3FEF6E
:100B50004FE75FECC701B6010E94A60887FDF3CFFF
:100B600020E030E0A901C701B6010E94A60887FF76
:100B700007C08DE20E948C00F7FAF094F7F8F09429
:100B80002AE037ED43EA5BE3C701B6010E943A0869
:100B90004B015C010E9424096B017C010E945309F6
:100BA0009B01AC01C501B4010E9439084B015C01F5
:100BB0004AE0C701B6010E9461038EE20E948C00E8
:100BC00020E030E040E251E4C501B4010E940A0A8D
:100BD0004B015C010E9424096B01E12CF12C4AE0DD
:100BE000C701B6010E946103C701B6010E94530903
:100BF0009B01AC01C501B4010E94390820E030E03E
:100C000040E251E40E940A0A0E94240980E090E038
:100C10004AE00E9461030E9480010E948001CC246E
:100C2000CA9483E0D82EE12CF12CC0E0D0E008EE8D
:100C300013E08FE00E94EB0090939A01809399015A
:100C40008BE00E94EB00909398018093970183E0E2
:100C50000E94EB00909396018093950180919401FE
:100C6000823030F4F89489E891E00E94010301C0D9
:100C7000F8948091900190919101A0919201B0918E
:100C80009301789440910601509107016091080109
:100C90007091090184179507A607B70761F0809343
:100CA000060190930701A0930801B0930901909366
:100CB000880180938701A0909701B090980180915E
:100CC000850190918601A816B90659F420918701F3
:100CD0003091880180918301909184012817390710
:100CE000C1F161E08BE00E94E802AB2849F48DE598
:100CF00091E00E94A203109305010093040119C022
:100D000083E691E00E94A203A0918701B09188013F
:100D100027EE33E00E947C0AA70196010E94E907B2
:100D2000DA01C9010196A11DB11D909305018093BF
:100D3000040180919701909198019093860180938E
:100D4000850180918701909188019093840180931F
:100D50008301A0909501B0909601809181019091BE
:100D600082018A159B05E9F060E08BE00E94E802B1
:100D7000AB2839F061E08AE00E94140182E391E03F
:100D800006C060E08AE00E94140188E391E00E94BE
:100D9000A203809195019091960190938201809396
:100DA0008101609104017091050180917F01909112
:100DB00080016817790709F44AC0072E000C880BD8
:100DC000990B0E9455094B015C019B01AC0160E04D
:100DD00074E284E799E40E94AB080E941D097093B5
:100DE0007E0160937D012BEB37E24FE05EE3C501AE
:100DF000B4010E940A0A6093790170937A0180938A
:100E00007B0190937C0160E084E00E94E8028AE428
:100E100091E00E94A20360E084E00E94E8028091D9
:100E20000401909105010E94A40361E085E00E9405
:100E3000E80280917D0190917E010E94A40380913F
:100E40000401909105019093800180937F01A0900F
:100E50009901B0909A018091770190917801A8163C
:100E6000B90609F161E085E00E94E802AB2859F07B
:100E700061E088E00E94140180917D0190917E01E3
:100E80000E94A40308C060E088E00E94140184E48A
:100E900091E00E94A2038091990190919A01909310
:100EA000780180937701209709F4C3CE0E94000057
:100EB000C0CECF93DF9310929E0110929D018EE0E1
:100EC00091E090939C0180939B018CE080939F0123
:100ED0008FEF8093A0018DE08093A10184E0809347
:100EE000A20185E08093A30186E08093A40187E0BE
:100EF0008093A5011092A6011092A7011092A8015B
:100F00001092A9011092AA0161E08BE991E00E9480
:100F1000450262E082E00E94440162E080E10E94BA
:100F20004401E8E8F0E0E491F0E0EE0FFF1FE45840
:100F3000FF4FA591B491B0938A01A0938901ECE988
:100F4000F0E0849180938D01E6E9F0E0E491F0E037
:100F5000EE0FFF1FE458FF4FC591D491D0938C0141
:100F6000C0938B01EAEAF0E0E491E0938E011092E5
:100F70009001109291011092920110929301EBE373
:100F8000FFE13197F1F7EC91E82381E009F480E08B
:100F9000288190918E01922309F0826080938F01C5
:100FA00089E891E090936B0180936A0189E493E072
:100FB0009093010180930001809169008C7F816092
:100FC00080936900E89A81E080939401DF91CF914A
:100FD0000895052E97FB1EF400940E94000857FD0B
:100FE00007D00E94080807FC03D04EF40C940008B8
:100FF00050954095309521953F4F4F4F5F4F089545
:1010000090958095709561957F4F8F4F9F4F089574
:10101000A1E21A2EAA1BBB1BFD010DC0AA1FBB1FFC
:10102000EE1FFF1FA217B307E407F50720F0A21B6E
:10103000B30BE40BF50B661F771F881F991F1A94DB
:1010400069F760957095809590959B01AC01BD0105
:10105000CF010895A29FB001B39FC001A39F700D5F
:10106000811D1124911DB29F700D811D1124911DB0
:1010700008955058BB27AA270E9451080C94CB0909
:101080000E94BD0938F00E94C40920F039F49F3F46
:1010900019F426F40C94BA090EF4E095E7FB0C94CD
:1010A000B409E92F0E94DC0958F3BA1762077307E5
:1010B0008407950720F079F4A6F50C94FE090EF448
:1010C000E0950B2EBA2FA02D0B01B90190010C0158
:1010D000CA01A0011124FF27591B99F0593F50F470
:1010E000503E68F11A16F040A22F232F342F4427C8
:1010F000585FF3CF469537952795A795F0405395C0
:10110000C9F77EF41F16BA0B620B730B840BBAF08F
:101110009150A1F0FF0FBB1F661F771F881FC2F7FA
:101120000EC0BA0F621F731F841F48F4879577950E
:101130006795B795F7959E3F08F0B0CF9395880FC8
:1011400008F09927EE0F9795879508950E949009CA
:1011500008F481E008950E94BF080C94CB090E9416
:10116000C40958F00E94BD0940F029F45F3F29F0FE
:101170000C94B40951110C94FF090C94BA090E9403
:10118000DC0968F39923B1F3552391F3951B550BB3
:10119000BB27AA2762177307840738F09F5F5F4F4A
:1011A000220F331F441FAA1FA9F335D00E2E3AF089
:1011B000E0E832D091505040E695001CCAF72BD0A1
:1011C000FE2F29D0660F771F881FBB1F26173707F2
:1011D0004807AB07B0E809F0BB0B802DBF01FF2724
:1011E00093585F4F3AF09E3F510578F00C94B40944
:1011F0000C94FF095F3FE4F3983ED4F3869577950E
:101200006795B795F7959F5FC9F7880F911D9695DC
:10121000879597F90895E1E0660F771F881FBB1F38
:10122000621773078407BA0720F0621B730B840BE5
:10123000BA0BEE1F88F7E09508950E942409689480
:10124000B1110C94FF0908950E94E40988F09F579A
:1012500098F0B92F9927B751B0F0E1F0660F771FDA
:10126000881F991F1AF0BA95C9F714C0B13091F0D0
:101270000E94FE09B1E008950C94FE09672F782FB3
:101280008827B85F39F0B93FCCF386957795679595
:10129000B395D9F73EF490958095709561957F4F01
:1012A0008F4F9F4F0895E89409C097FB3EF49095A7
:1012B0008095709561957F4F8F4F9F4F9923A9F02F
:1012C000F92F96E9BB279395F695879577956795BE
:1012D000B795F111F8CFFAF4BB0F11F460FF1BC002
:1012E0006F5F7F4F8F4F9F4F16C0882311F096E995
:1012F00011C0772321F09EE8872F762F05C0662343
:1013000071F096E8862F70E060E02AF09A95660FFB
:10131000771F881FDAF7880F9695879597F90895B4
:10132000990F0008550FAA0BE0E8FEEF16161706F6
:10133000E807F907C0F012161306E407F50798F05E
:10134000621B730B840B950B39F40A2661F0232B77
:10135000242B252B21F408950A2609F4A140A695F3
:101360008FEF811D811D089597F99F6780E870E0D8
:1013700060E008959FEF80EC089500240A9416160B
:10138000170618060906089500240A941216130673
:10139000140605060895092E0394000C11F4882301
:1013A00052F0BB0F40F4BF2B11F460FF04C06F5F1D
:1013B0007F4F8F4F9F4F089557FD9058440F551FF3
:1013C00059F05F3F71F04795880F97FB991F61F0C7
:1013D0009F3F79F087950895121613061406551F3E
:1013E000F2CF4695F1DF08C0161617061806991FAA
:1013F000F1CF86957105610508940895E894BB279F
:1014000066277727CB0197F908950E94900908F481
:101410008FEF08950E941D0A0C94CB090E94BD090C
:1014200038F00E94C40920F0952311F00C94B409FF
:101430000C94BA0911240C94FF090E94DC0970F382
:10144000959FC1F3950F50E0551F629FF001729F69
:10145000BB27F00DB11D639FAA27F00DB11DAA1F78
:10146000649F6627B00DA11D661F829F2227B00DC5
:10147000A11D621F739FB00DA11D621F839FA00D50
:10148000611D221F749F3327A00D611D231F849FA0
:10149000600D211D822F762F6A2F11249F575040F7
:1014A0009AF0F1F088234AF0EE0FFF1FBB1F661F72
:1014B000771F881F91505040A9F79E3F510580F03B
:1014C0000C94B4090C94FF095F3FE4F3983ED4F305
:1014D000869577956795B795F795E7959F5FC1F7DF
:1014E000FE2B880F911D9695879597F908950E9478
:1014F0009009880B990B08950E942A08B7FF089558
:10150000821B930B0895EE0FFF1F0590F491E02DC1
:10151000099481E090E0F8940C948E0AF894FFCF3F
:10152000A501A501010019FCFFFF000000003C021D
:101530009700FE02FD02456C4D656368506C617357
:10154000740072706D3A30302E3030004B69657225
:101550003A0053544152540053544F50200050729B
:10156000617779004C6577792000202020202020A9
:10157000006E616E00696E66006F7666004D4158C0
:0A1580002E20004E4F524D2E0000A9
:00000001FF
